:020000040800F2
:1080000000000120DDA401088160010899600108D9
:10801000B1600108C9600108E160010800000000CA
:10802000000000000000000000000000F9600108EE
:10803000FB60010800000000FD600108016101080B
:10804000CF620108D1620108CD620108D362010844
:10805000D5620108D7620108D9620108DB62010814
:10806000DD620108DF620108E162010811610108B7
:1080700015610108C9610108E3620108E5620108B0
:10808000E7620108E9620108EB620108ED6201089C
:1080900000000000EF620108F1620108F3620108CC
:1080A000F5620108F7620108F9620108FB62010844
:1080B000FD620108FF620108016301080363010812
:1080C0000563010807630108096301080B630108E0
:1080D000CD6101080D6301084D6201080F630108BD
:1080E0001163010813630108598F01081563010822
:1080F0001763010800000000000000001963010878
:108100001B6301081D630108918001081F630108BA
:10811000216301082363010825630108276301081F
:10812000296301082B6301082D6301082F630108EF
:0881300031630108336301080B
:1082000000A1C010020000000000000004A901004D
:048210001200000058
:1082200001F0FF01102A2BDB10F0070F08D010F827
:10823000013B013A8B422DD010F0070F42B3F6D12B
:10824000F0B441EA012141EA014122F007047FF044
:1082500000070023F0E80256083C85EA010586EA9B
:10826000010685FA47F5A3FA87F586FA47F6A5FAD7
:1082700087F68EB9EED1F0BC01F0FF0102F00702E3
:1082800032B110F8013B013A83EA010313B1F8D18E
:108290000020704701387047002D06BF354603386F
:1082A000073815F0010F07D1013015F4807F02BFA8
:1082B000013015F4C03F0130F0BC0138704700BFF9
:1082C000034613F8012B002AFBD1181A0138704716
:1082D00081F0004102E000BF83F0004330B54FEA77
:1082E00041044FEA430594EA050F08BF90EA020FE4
:1082F0001FBF54EA000C55EA020C7FEA645C7FEA77
:10830000655C00F0E2804FEA5454D4EB5555B8BF99
:108310006D420CDD2C4480EA020281EA030382EA0A
:10832000000083EA010180EA020281EA0303362D9C
:1083300088BF30BD11F0004F4FEA01314FF4801C6F
:108340004CEA113102D0404261EB410113F0004F81
:108350004FEA03334CEA133302D0524263EB430338
:1083600094EA050F00F0A780A4F10104D5F1200ED6
:108370000DDB02FA0EFC22FA05F2801841F1000131
:1083800003FA0EF2801843FA05F359410EE0A5F105
:1083900020050EF1200E012A03FA0EFC28BF4CF036
:1083A000020C43FA05F3C01851EBE37101F00045EC
:1083B00007D54FF0000EDCF1000C7EEB00006EEBF9
:1083C0000101B1F5801F1BD3B1F5001F0CD3490883
:1083D0005FEA30004FEA3C0C04F101044FEA4452DA
:1083E00012F5800F80F09A80BCF1004F08BF5FEA61
:1083F000500C50F1000041EB045141EA050130BD41
:108400005FEA4C0C404141EB0101013C28BFB1F552
:10841000801FE9D291F0000F04BF01460020B1FA9D
:1084200081F308BF2033A3F10B03B3F120020CDA70
:108430000C3208DD02F1140CC2F10C0201FA0CF04E
:1084400021FA02F10CE002F11402D8BFC2F1200CB3
:1084500001FA02F120FA0CFCDCBF41EA0C01904069
:10846000E41AA2BF01EB0451294330BD6FEA0404B2
:108470001F3C1CDA0C340EDC04F11404C4F120029D
:1084800020FA04F001FA02F340EA030021FA04F3AF
:1084900045EA030130BDC4F10C04C4F1200220FA06
:1084A00002F001FA04F340EA0300294630BD21FA44
:1084B00004F0294630BD94F0000F83F4801306BF0A
:1084C00081F480110134013D4EE77FEA645C18BFFE
:1084D0007FEA655C29D094EA050F08BF90EA020F95
:1084E00005D054EA000C04BF1946104630BD91EA8D
:1084F000030F1EBF0021002030BD5FEA545C05D190
:108500004000494128BF41F0004130BD14F58004CE
:108510003CBF01F5801130BD01F0004545F0FE4142
:1085200041F470014FF0000030BD7FEA645C1ABF77
:10853000194610467FEA655C1CBF0B46024650EAAE
:10854000013406BF52EA033591EA030F41F40021DA
:1085500030BD00BF90F0000F04BF0021704730B560
:108560004FF4806404F132044FF000054FF0000135
:1085700050E700BF90F0000F04BF0021704730B5F6
:108580004FF4806404F1320410F0004548BF4042CB
:108590004FF000013EE700BF42004FEAE2014FEA20
:1085A00031014FEA02701FBF12F07F4393F07F4FFB
:1085B00081F06051704732F07F4208BF704793F0FE
:1085C0007F4F04BF41F40021704730B54FF4607411
:1085D00001F0004521F000411CE700BF50EA010214
:1085E00008BF704730B54FF000050AE050EA0102BD
:1085F00008BF704730B511F0004502D5404261EB2D
:1086000041014FF4806404F132045FEA915C3FF46D
:10861000D8AE4FF003025FEADC0C18BF03325FEA0A
:10862000DC0C18BF033202EBDC02C2F1200300FABB
:1086300003FC20FA02F001FA03FE40EA0E0021FAE0
:1086400002F11444BDE600BF70B54FF0FF0C4CF4CE
:10865000E06C1CEA11541DBF1CEA135594EA0C0F80
:1086600095EA0C0F00F0DEF82C4481EA030621EABB
:108670004C5123EA4C5350EA013518BF52EA0335F6
:1086800041F4801143F4801338D0A0FB02CE4FF0A8
:108690000005E1FB02E506F00042E0FB03E54FF0D8
:1086A0000006E1FB03569CF0000F18BF4EF0010ED0
:1086B000A4F1FF04B6F5007F64F5407404D25FEACC
:1086C0004E0E6D4146EB060642EAC62141EA55517F
:1086D0004FEAC52040EA5E504FEACE2EB4F1FD0CC1
:1086E00088BFBCF5E06F1ED8BEF1004F08BF5FEA3F
:1086F000500E50F1000041EB045170BD06F00046F1
:1087000046EA010140EA020081EA0301B4EB5C049D
:10871000C2BFD4EB0C0541EA045170BD41F4801195
:108720004FF0000E013C00F3AB8014F1360FDEBFBA
:10873000002001F0004170BDC4F10004203C35DA96
:108740000C341BDC04F11404C4F1200500FA05F319
:1087500020FA04F001FA05F240EA020001F00042BA
:1087600021F0004110EBD37021FA04F642EB060130
:108770005EEA430E08BF20EAD37070BDC4F10C045A
:10878000C4F1200500FA04F320FA05F001FA04F21E
:1087900040EA020001F0004110EBD37041F100010A
:1087A0005EEA430E08BF20EAD37070BDC4F1200515
:1087B00000FA05F24EEA020E20FA04F301FA05F27D
:1087C00043EA020321FA04F001F0004121FA04F225
:1087D00020EA020000EBD3705EEA430E08BF20EAF5
:1087E000D37070BD94F0000F0FD101F0004640002F
:1087F00041EB010111F4801F08BF013CF7D041EAB1
:10880000060195F0000F18BF704703F000465200B4
:1088100043EB030313F4801F08BF013DF7D043EA85
:108820000603704794EA0C0F0CEA135518BF95EA3B
:108830000C0F0CD050EA410618BF52EA4306D1D1C2
:1088400081EA030101F000414FF0000070BD50EAE1
:10885000410606BF1046194652EA430619D094EA6B
:108860000C0F02D150EA013613D195EA0C0F05D155
:1088700052EA03361CBF104619460AD181EA0301A9
:1088800001F0004141F0FE4141F470014FF0000061
:1088900070BD41F0FE4141F4780170BD70B54FF0FC
:1088A000FF0C4CF4E06C1CEA11541DBF1CEA13557C
:1088B00094EA0C0F95EA0C0F00F0A7F8A4EB05045E
:1088C00081EA030E52EA03354FEA013100F0888055
:1088D0004FEA03334FF0805545EA131343EA12631E
:1088E0004FEA022245EA111545EA10654FEA0026D3
:1088F0000EF000419D4208BF964244F1FD0404F58C
:10890000407402D25B084FEA3202B61A65EB0305E7
:108910005B084FEA32024FF480104FF4002CB6EBA4
:10892000020E75EB030E22BFB61A754640EA0C0024
:108930005B084FEA3202B6EB020E75EB030E22BF64
:10894000B61A754640EA5C005B084FEA3202B6EBA5
:10895000020E75EB030E22BFB61A754640EA9C0064
:108960005B084FEA3202B6EB020E75EB030E22BF34
:10897000B61A754640EADC0055EA060E18D04FEAF2
:10898000051545EA16754FEA06164FEAC30343EA92
:1089900052734FEAC2025FEA1C1CC0D111F4801F5F
:1089A0000BD141EA00014FF000004FF0004CB6E758
:1089B00011F4801F04BF01430020B4F1FD0C88BFF7
:1089C000BCF5E06F3FF6AFAEB5EB030C04BFB6EB02
:1089D000020C5FEA500C50F1000041EB045170BDF5
:1089E0000EF0004E4EEA113114EB5C04C2BFD4EB22
:1089F0000C0541EA045170BD41F480114FF0000EA6
:108A0000013C90E645EA060E8DE60CEA135594EA21
:108A10000C0F08BF95EA0C0F3FF43BAF94EA0C0F24
:108A20000AD150EA01347FF434AF95EA0C0F7FF499
:108A300025AF104619462CE795EA0C0F06D152EAED
:108A400003353FF4FDAE1046194622E750EA4106D1
:108A500018BF52EA43067FF4C5AE50EA41047FF4E2
:108A60000DAF52EA43057FF4EBAE12E74FF0FF3C47
:108A700006E000BF4FF0010C02E000BF4FF0010C18
:108A80004DF804CD4FEA410C7FEA6C5C4FEA430C91
:108A900018BF7FEA6C5C1BD001B050EA410C0CBFE0
:108AA00052EA430C91EA030F02BF90EA020F002042
:108AB000704710F1000F91EA030F58BF994208BFA9
:108AC00090422CBFD8176FEAE37040F00100704766
:108AD0004FEA410C7FEA6C5C02D150EA013C07D1BD
:108AE0004FEA430C7FEA6C5CD6D152EA033CD3D008
:108AF0005DF8040B704700BF8446104662468C4602
:108B00001946634600E000BF01B5FFF7B7FF002834
:108B100048BF10F1000F01BD4DF808EDFFF7F4FF5D
:108B20000CBF012000205DF808FB00BF4DF808EDE8
:108B3000FFF7EAFF34BF012000205DF808FB00BF0B
:108B40004DF808EDFFF7E0FF94BF012000205DF82D
:108B500008FB00BF4DF808EDFFF7CEFF94BF0120E2
:108B600000205DF808FB00BF4DF808EDFFF7C4FFDB
:108B700034BF012000205DF808FB00BF4FEA410C24
:108B80007FEA6C5C02D150EA013C0AD14FEA430C07
:108B90007FEA6C5C02D152EA033C02D14FF0000044
:108BA00070474FF0010070474FEA410212F5001282
:108BB00015D211D56FF47873B3EB625212D94FEA24
:108BC000C12343F0004343EA505311F0004F23FA0E
:108BD00002F018BF404270474FF00000704750EA63
:108BE000013005D111F0004008BF6FF00040704720
:108BF0004FF00000704700BF4A0011D212F500127A
:108C000011D20DD56FF47873B3EB62520ED44FEAE4
:108C1000C12343F0004343EA505323FA02F0704764
:108C20004FF00000704750EA013002D14FF0FF30A2
:108C300070474FF0000070474FEA4102B2F1E04345
:108C400024BFB3F5001CDCF1FE5C0DD901F0004C33
:108C50004FEAC0024CEA5070B2F1004F40EB830083
:108C600008BF20F00100704711F0804F21D113F1AF
:108C70003872BCBF01F00040704741F480114FEAE8
:108C80005252C2F11802C2F1200C10FA0CF320FA71
:108C900002F018BF40F001004FEAC1234FEAD3238E
:108CA00003FA0CFC40EA0C0023FA02F34FEA4303F8
:108CB000CCE77FEA625307D150EA01331EBF4FF081
:108CC000FE4040F44000704701F0004040F0FE409C
:108CD00040F40000704700BF4FF0FF3C06E000BFCB
:108CE0004FF0010C02E000BF4FF0010C4DF804CD35
:108CF0004FEA40024FEA41037FEA226C18BF7FEA45
:108D0000236C11D001B052EA530C18BF90EA010F46
:108D100058BFB2EB030088BFC81738BF6FEAE170D5
:108D200018BF40F0010070477FEA226C02D15FEA71
:108D3000402C05D17FEA236CE4D15FEA412CE1D0DD
:108D40005DF8040B704700BF844608466146FFE7A4
:108D50000FB5FFF7C9FF002848BF10F1000F0FBD86
:108D60004DF808EDFFF7F4FF0CBF012000205DF87F
:108D700008FB00BF4DF808EDFFF7EAFF34BF012004
:108D800000205DF808FB00BF4DF808EDFFF7E0FF9D
:108D900094BF012000205DF808FB00BF4DF808EDEE
:108DA000FFF7D2FF94BF012000205DF808FB00BF51
:108DB0004DF808EDFFF7C8FF34BF012000205DF833
:108DC00008FB00BF53B94AB9002908BF00281CBFDF
:108DD0004FF0FF314FF0FF3000F00CB8ADF1080C50
:108DE0006DE904CE15F03CFEDDF804E0DDE9022378
:108DF00004B07047704700BF80F0004002E000BF41
:108E000081F0004142001FBF5FEA410392EA030F75
:108E10007FEA226C7FEA236C6AD04FEA1262D2EBBF
:108E20001363C1BFD218414048404140B8BF5B42C4
:108E3000192B88BF704710F0004F40F4000020F05D
:108E40007F4018BF404211F0004F41F4000121F073
:108E50007F4118BF494292EA030F3FD0A2F10102BD
:108E600041FA03FC10EB0C00C3F1200301FA03F1FB
:108E700000F0004302D5494260EB4000B0F5000F1E
:108E800013D3B0F1807F06D340084FEA310102F1DD
:108E90000102FE2A51D2B1F1004F40EBC25008BF8F
:108EA00020F0010040EA03007047490040EB000059
:108EB000013A28BFB0F5000FEDD2B0FA80FCACF15A
:108EC000080CB2EB0C0200FA0CF0AABF00EBC25087
:108ED00052421843BCBFD0401843704792F0000F75
:108EE00081F4000106BF80F400000132013BB5E7C8
:108EF0004FEA41037FEA226C18BF7FEA236C21D03E
:108F000092EA030F04D092F0000F08BF08467047A2
:108F100090EA010F1CBF0020704712F07F4F04D170
:108F2000400028BF40F00040704712F100723CBF83
:108F300000F50000704700F0004343F0FE4040F4AD
:108F4000000070477FEA226216BF08467FEA23636B
:108F50000146420206BF5FEA412390EA010F40F456
:108F6000800070474FF0000304E000BF10F00043A2
:108F700048BF40425FEA000C08BF704743F0964389
:108F800001464FF000001CE050EA010208BF7047A4
:108F90004FF000030AE000BF50EA010208BF70472B
:108FA00011F0004302D5404261EB41015FEA010C40
:108FB00002BF84460146002043F0B64308BFA3F138
:108FC0008053A3F50003BCFA8CF2083AA3EBC2531A
:108FD00010DB01FA02FC634400FA02FCC2F1200239
:108FE000BCF1004F20FA02F243EB020008BF20F070
:108FF0000100704702F1200201FA02FCC2F12002D6
:1090000050EA4C0021FA02F243EB020008BF20EACA
:10901000DC7070474FF0FF0C1CEAD0521EBF1CEAF8
:10902000D15392EA0C0F93EA0C0F6FD01A4480EAE6
:10903000010C400218BF5FEA41211ED04FF00063CF
:1090400043EA501043EA5111A0FB01310CF00040FB
:10905000B1F5000F3EBF490041EAD3715B0040EA21
:10906000010062F17F02FD2A1DD8B3F1004F40EBF1
:10907000C25008BF20F00100704790F0000F0CF0C4
:10908000004C08BF49024CEA502040EA51207F3A88
:10909000C2BFD2F1FF0340EAC250704740F4000063
:1090A0004FF00003013A5DDC12F1190FDCBF00F054
:1090B00000407047C2F10002410021FA02F1C2F102
:1090C000200200FA02FC5FEA310040F1000053EA9E
:1090D0004C0308BF20EADC70704792F0000F00F0EC
:1090E000004C02BF400010F4000F013AF9D040EAF2
:1090F0000C0093F0000F01F0004C02BF490011F486
:10910000000F013BF9D041EA0C018FE70CEAD15383
:1091100092EA0C0F18BF93EA0C0F0AD030F0004C03
:1091200018BF31F0004CD8D180EA010000F00040B7
:10913000704790F0000F17BF90F0004F084691F075
:10914000000F91F0004F14D092EA0C0F01D14202AF
:109150000FD193EA0C0F03D14B0218BF084608D178
:1091600080EA010000F0004040F0FE4040F40000C2
:10917000704740F0FE4040F4400070474FF0FF0C55
:109180001CEAD0521EBF1CEAD15392EA0C0F93EA9C
:109190000C0F69D0A2EB030280EA010C49024FEAEE
:1091A000402037D04FF0805343EA111143EA1013A7
:1091B0000CF000408B4238BF5B0042F17D024FF45F
:1091C000000C8B4224BF5B1A40EA0C00B3EB510F3A
:1091D00024BFA3EB510340EA5C00B3EB910F24BF23
:1091E000A3EB910340EA9C00B3EBD10F24BFA3EBA8
:1091F000D10340EADC001B0118BF5FEA1C1CE0D170
:10920000FD2A3FF650AF8B4240EBC25008BF20F022
:10921000010070470CF0004C4CEA50207F32C2BF76
:10922000D2F1FF0340EAC250704740F400004FF013
:109230000003013A37E792F0000F00F0004C02BF44
:10924000400010F4000F013AF9D040EA0C0093F00E
:10925000000F01F0004C02BF490011F4000F013B68
:10926000F9D041EA0C0195E70CEAD15392EA0C0FD0
:1092700008D142027FF47DAF93EA0C0F7FF470AF08
:10928000084676E793EA0C0F04D14B023FF44CAF4B
:1092900008466EE730F0004C18BF31F0004CCAD1E0
:1092A00030F000427FF45CAF31F000437FF43CAF1C
:1092B0005FE700BF4FEA4002B2F1FE4F0FD34FF01D
:1092C0009E03B3EB12620DD94FEA002343F0004333
:1092D00010F0004F23FA02F018BF404270474FF0E1
:1092E0000000704712F1610F01D1420205D110F068
:1092F000004008BF6FF0004070474FF0000070471B
:1093000042000ED2B2F1FE4F0BD34FF09E03B3EBEF
:10931000126209D44FEA002343F0004323FA02F01B
:1093200070474FF00000704712F1610F01D1420207
:1093300002D14FF0FF3070474FF00000704700BF80
:109340000348044B834202D0034B03B118477047D4
:109350004004002040040020000000000548064BA7
:109360001B1AD90F01EBA301491002D0034B03B123
:10937000184770474004002040040020000000000F
:1093800010B5064C237843B9FFF7DAFF044B13B14D
:109390000448AFF300800123237010BD4004002077
:1093A00000000000C4EE010808B5054B1BB10549DB
:1093B0000548AFF30080BDE80840FFF7CFBF00BF0E
:1093C0000000000044040020C4EE0108014B1868AE
:1093D000704700BFE0340020064A137843F00403CE
:1093E0001370054BD3F8483313B11B6903B1184709
:1093F000704700BF54290020E8290020024B1A883A
:1094000010431880704700BF2807002037B500239D
:10941000044601A8009300F045F86D46009095E8D9
:10942000030084E80300204603B030BD024B986877
:10943000024BC0431860704700280040A42600205B
:10944000014B1868704700BFA4260020034B044A54
:109450009B681068DB43181A704700BF0028004063
:10946000A4260020034B187810B1034B9868C04322
:10947000704700BFE026002000280040032070470E
:1094800008B501464FF47A7200238002890DFFF778
:1094900099FC08BD4FF47A73A0FB0303800A40EAED
:1094A00083507047094B0A4A9B6810B5DB43D2F8DA
:1094B00008414FF47A71C3F30902A2FB0121920A19
:1094C0009B0A028043EA845010BD00BF0028004080
:1094D00000B00040014BC3F80001704700B00040ED
:1094E000014BC3F80401704700B00040014BD3F8B2
:1094F0000001704700B00040014BD3F804017047F1
:1095000000B00040014B1868704700BFA026002043
:109510000A4BD3E900210A4308D10949D1F8802533
:1095200012BA5A60D1F8842512BA1A60D3E900231E
:10953000C0F81E20C0F82230704700BF98260020D7
:109540000070FF1F70470000014B01221A70704726
:10955000E80C002010B50B4C0346A34209D9A342E6
:10956000184605D80278303A092A03F10103F6D8E3
:1095700010BD1A4612F8011B30390929EFD81346DD
:10958000EBE700BFBA110020A0F13003092B01D88E
:10959000D8B27047044B1B5C03F00303012B08BFD8
:1095A00020305738C0B27047F122020838B501EBBD
:1095B0004202441E0878FFF7E7FF05464878FFF7A8
:1095C000E3FF023140EA05108A4204F8010FF1D1AD
:1095D00038BD0B7803704B7843708B788370CB78F1
:1095E000C3700B7903714B7943718B798371CB799C
:1095F000C3710B7A03724B7A43728B7A8372CB7A84
:10960000C3720B7B03734B7B43738B7B8373CB7B6B
:10961000C373704770B50A7803782E4C5340427F6D
:10962000A25C53400370837F4278E35C53404370F5
:10963000C37F8278E35C53408370037FC278E35C2E
:109640005340C3700A78D30903EB430303EBC3030E
:1096500083EA42030B700246034600F10C011579C0
:10966000167875401571567855797540557196780C
:10967000957975409571D678D5797540D571043254
:109680008A42ECD1027B057CA25C6A400274427B78
:10969000457CA25C6A404274827B857CA25C6A4005
:1096A0008274C27BA25CC47C6240C2741A7D187C46
:1096B00042401A75587C5A7D42405A75987C9A7D72
:1096C00042409A75D87CDA7D4240DA7504338B4289
:1096D000ECD170BD6EF401080A4B1A6870B5002316
:1096E00002F1100503EB03142E5D864204D1103401
:1096F00022440A60002070BD01330A2BF2D10320FE
:10970000F9E700BF98340020024B01225A70024B47
:109710005B6918475806002058010020014B187853
:10972000704700BF58060020014B5878704700BFB3
:109730005806002070470000044B054A93F8043196
:10974000022B18BF062382F894347047082F00209C
:10975000E8290020054AD2F81E300360D2F82230F2
:1097600043600146082202480EF006B9E0340020AA
:10977000F5FC01081FB50A4B8DF8090093F8742019
:109780008DF80A2093F8802093F840000D3202A94A
:109790008DF8082008F0BCFEC0B205B05DF804FBEF
:1097A000082F00200B4600F1006101F57E311846BC
:1097B00012F0F8BD38B50E4D0E4CA0B199B128602D
:1097C000E16001230C490D48627223700EF050F9DC
:1097D00000250B482582202229460AF0AFFC65703F
:1097E000A574A58638BD00232B602370F0E700BF69
:1097F0009006002058060020099700084006002027
:109800006C06002010B509480FF004FC084B93F8D3
:109810001E2412B1012283F81D24D3F8483323B14A
:109820001B6913B1BDE81040184710BDEC2D002096
:10983000E829002010B50C4CD4F8403343F08003E5
:10984000C4F8403394F81E3413B10020FFF7DAFF58
:1098500094F8953423F0220343F0220384F89534DE
:10986000BDE81040FFF768BFE82900200F4890F8D6
:109870001F3480F8B8330E4B93F8612080F8BB2377
:1098800093F8752080F8C82393F8802080F8C923C6
:1098900093F81C3180F8CC330022A0F8CA2300F5DD
:1098A0006E7100F560700FF0DBBB00BFE82900208F
:1098B000082F0020114890F89434EBB190F81F3431
:1098C00080F8D0330E4B5A6EC0F8D42393F875202D
:1098D00080F8E02393F8802080F8E12393F81C318E
:1098E00080F8E4334FF48072A0F8E22300F574713D
:1098F00000F566700FF0B4BB704700BFE829002088
:10990000082F0020F0B5294F294D97F9042095F82C
:1099100000C0284B284E8FB00C4602284FF00101A2
:109920008DF800108DF8052011D19871DC7100239D
:109930008DF80400C6F840332B7803B114B16846A3
:109940000AF002FC1D4B049A1A600FB0F0BD8DF8AE
:109950000410997100211A715971DC71BCF1000F6A
:1099600018D11F2305A88DF814308DF818200AF09F
:10997000F5FC20238DF8143005A83B798DF81830BC
:109980000AF0ECFC29238DF8143005A80C4B069343
:109990000AF0E4FC0023C6F8403305A801238DF843
:1099A00014308DF818300AF0D9FCC5E7CC3400200B
:1099B000A034002020010020E829002024070020F6
:1099C000000400017FB5092301A88DF804300AF0D6
:1099D000BBFB0038044B059A1A6018BF01204042B7
:1099E00007B05DF804FB00BF2407002000F1006011
:1099F00000F57E300CF010BA08B5054B0122DA658F
:109A00000EF094F8034B4FF0FF321A63002008BDAC
:109A100000280040A8260020F8B5164D2E783EBB41
:109A2000154C4FF0FF372763FFF7E6FF0EF07EF887
:109A300094F82C302763012B12D0022384F82D30A8
:109A40000E4BCA225A6253225A629A6942F020028D
:109A50009A61FF225A62012384F82D3084F82C6029
:109A6000074B0022C3F80821FFF7E0FC01232B700D
:109A70000020F8BDE0260020A82600200028004095
:109A800000B0004070B504460B46164962784A7033
:109A90000020A2780A7208701A884A729A788A722C
:109AA000DB780B746368CB60237803F0FB030A2B2D
:109AB00003D00D4B1B68DB6A98470C4E002556F807
:109AC000043B1BB15B6A0BB1204698470135EBB2F2
:109AD000052B6DB2F3D12378062B02BF044B012274
:109AE0001A7070BDF00000209C340020EC2600208D
:109AF000C834002070B504461048114E012303708D
:109B000063784370A3788372E368C360E378037675
:109B100023694376237943720A4B1B689B6A9847F3
:109B2000002556F8043B1BB19B690BB120469847B2
:109B30000135EBB2052B6DB2F3D170BD04010020ED
:109B4000EC2600209C340020F0B50B4646782249D4
:109B500001228DB004460A704E70002E39D1027970
:109B60000A721A884A729A788A72DB780B740369CF
:109B7000CB60C378194D8DF80430037B8DF8053028
:109B8000836802932B6801A8DB6A98472B689B6B5C
:109B900013B1227E02B19847114F002557F8043BBC
:109BA0001BB1DB690BB1204698470135EBB2052BA1
:109BB0006DB2F3D1002303A88DF80C3009F06CF8D6
:109BC00008B99DF810606379012B02D10EB9054ADE
:109BD00013700DB0F0BD00BFF00000209C340020D9
:109BE000EC260020C83400200CF066B97F200DF070
:109BF00007BB0AF0B7BE00002DE9F0478C4C237874
:109C00008CB0002B53D0C2780AB9837B13B1238A5E
:109C100001332382437B002B49D0E02A47D1002324
:109C2000A372876897F80080B8F1220F27D8B8F19F
:109C3000220F30D8DFE818F03E00F8004F00550042
:109C40005C006900700089009800AF00C2002F001E
:109C50002F002F002F002F002F002F002F002F008C
:109C60002F002F002F002F002F002F002F002F007C
:109C70002F002F002F002F00C400CC00D000B8F11F
:109C80007E0F00F0C980B8F17F0F00F0DB80B8F1E3
:109C90007D0F00F0A780A57A002D00F05781654860
:109CA0004FF47A710FF0FAF962480FF013F90CB023
:109CB000BDE8F087E36801220021A2721970A37A3F
:109CC000E1689818A0720620C854A37AE168981831
:109CD000A072CA54DFE7584B01219B6A02209847C3
:109CE000D9E77B7884F83630012384F83530D2E721
:109CF00004238DF804307B78003B18BF012301A8B2
:109D00008DF808300AF02AFBC5E77878003818BFCC
:109D1000012009F08DFBBEE7484E0FCE01AD0FC507
:109D20000FCE0FC596E8070085E807007B780A2B61
:109D3000B1D8434A12685268002AACD00CA901EB92
:109D4000830353F82C0C9047A5E77878431E012B2A
:109D5000A1D83B4B01381B6818BF012020729B68BB
:109D6000002B98D0984796E7E26801230821A37258
:109D70001170627A057BA17AAA4228BF2A469342D3
:109D800089D285685A1CEB5CE56801334E1CA672CB
:109D90006B54D3B2EDE7E3680122A27209221A7074
:109DA000A37AE268218A581CA072D154A27A238A2D
:109DB000E1681B0A501CA0728B546CE723826AE78F
:109DC00004238DF804300DEB03000AF0BDF962E7BF
:109DD000194BDB6A98475EE7194B78781B6860750A
:109DE000DB68BDE7037B072B7FF455AF05238DF8B8
:109DF0000430B7F80130ADF808307B793A791B04AC
:109E000043EA0223FA781343642253430393BB7952
:109E10008DF8103001A8D8E7392201A88DF8042068
:109E20008DF808300AF09AFA012384F8343032E7CA
:109E3000580600204006002058010020E0EE0108EE
:109E4000900600202A2301A88DF8043008F024FF92
:109E500094F80A90E6689DF808009DF809509DF86E
:109E60000A709DF80BC09DF80D309DF80E209DF8EE
:109E70000F109DF80CE009F1010A84F80AA006F819
:109E80000980354E94F80A903668D4F80C8009F1B0
:109E9000010A84F80AA096F803A008F809A094F82B
:109EA0000A90D4F80C8009F1010A84F80AA096F807
:109EB00002A008F809A094F80A90D4F80C8009F1DF
:109EC000010A84F80AA096F801A008F809A094F8FD
:109ED0000A9009F1010A84F80AA096F80080E66861
:109EE00006F8098094F80A80E66808F1010984F808
:109EF0000A9006F808C094F80AC0E6680CF1010858
:109F000084F80A8006F80C70A77AE66807F1010C5D
:109F100084F80AC0F555A57AE6686F1CA7727055DB
:109F2000A07AE568461CA6722954A17AE0684D1C07
:109F3000A5724254A27AE168501CA0728B54A37A95
:109F4000E268591CA17202F803E0A4E603480FF08E
:109F500061F86570ABE600BF900600204006002067
:109F60000D4B70B54FF480620C4C9A62256840F638
:109F7000B7360BF093FF28B10EF062F923685B1B34
:109F8000B34204D9044B4FF480629A6170BD322011
:109F90000BF0D4FFEDE700BF00040048A02600202E
:109FA0002E4B07B54FF480629A612D4B9B7E33B9DF
:109FB0004FF0904304229A624FF400729A61294A4A
:109FC0002949022393710B6823F040030B604FF083
:109FD000B0414FF480204B6E23F001034B66234BBE
:109FE000C3F88400BFF34F8FBFF36F8F2048D0F8C2
:109FF000903023F48053C0F890301E4B986820F4C2
:10A00000006098604FF400609861D1F8943043F498
:10A010000043C1F89430184B1B681C204343DB0CF1
:10A02000642043430193019B5BB9012393600021AA
:10A030009160517191716BB1104A152301200BF0A1
:10A0400049FA019B013B0193D1F894305B04EAD5B6
:10A050000023ECE703B05DF804FB00BF00040048F8
:10A06000E0340020000D00200000015800E100E075
:10A0700000080058000400584C01002006FD0108AB
:10A0800010B50024204601340DF0FAF8322CF9D135
:10A09000024B0020C3E90000986010BDEC0C0020CA
:10A0A0000FB400B5A3B024AB802153F8042B019367
:10A0B00002A814F029FB011E02DB02A80BF0FCFE33
:10A0C00023B05DF804EB04B070470000F0B5122334
:10A0D000002285B002213F483F4CFFF7E1FF3F4897
:10A0E000FFF7DEFF3E48FFF7DBFFA17E3D48FFF7AD
:10A0F000D7FF21683C48FFF7D3FF61683B48FFF773
:10A10000CFFFA1683A48FFF7CBFF94F91810394800
:10A11000FFF7C6FF217F3848FFF7C2FF617F37484E
:10A12000FFF7BEFFE1683648FFF7BAFF21693548FF
:10A13000FFF7B6FF61693448FFF7B2FF617E33482D
:10A14000FFF7AEFFE17E3248FFF7AAFF94F85E20EA
:10A150003049002311F83300904236D12E4A2F485F
:10A1600052F83310FFF79CFF2D4AD4F81E005168B7
:10A170002C4F02AB03C32C48FFF792FF02AE002521
:10A1800016F8011B38460135FFF78AFF082DF7D175
:10A190002648244EFFF784FF254AD4F8260051684C
:10A1A0006B4603C32348FFF77BFF6D46002415F879
:10A1B000011B30460134FFF773FF082CF7D11B4811
:10A1C000FFF76EFF002005B0F0BD01330A2BC1D1AF
:10A1D000CAE700BF48FD0108E034002059FD01082E
:10A1E00068FD010874FD01088DFD01089CFD010852
:10A1F000ABFD0108C7FD0108DAFD0108F4FD010807
:10A2000010FE01082FFE01084CFE010868FE01083F
:10A210007BFE0108B8F50108B4F5010894FE0108B9
:10A22000FE34002040210208ACFE0108050B0208A4
:10A2300006350020B9FE01082DE9F04FDFF8ACA08B
:10A240002B4ADAF8087053682A481268DFF8A89099
:10A25000DFF8A8B095B03946FFF722FF00244FF091
:10A260000008BC4203D1002015B0BDE8F08F0CAA55
:10A27000214650460EF0FBFD9DF84700BDF84260B8
:10A280009DF84350FEF766F942464B46FEF706FB43
:10A290009DF846300993BDF844300893DDE90E235C
:10A2A000CDE90623DDE90C23CDE904239DF84030F8
:10A2B00003F03F030393BDF84030C3F385130293CB
:10A2C000109BC3F3043301939DF84230C6F3831609
:10A2D000C3F34403AD08CDE90A0100932146334698
:10A2E0002A465846FFF7DCFE0134BAE7EC0C0020A2
:10A2F000E0340020C6FE010800002440EAFE010808
:10A300002DE9F8431048114DDFF84480DFF8449000
:10A31000114FFFF7C5FE17244046FFF7C1FE28681E
:10A32000FFF7BEFEAE682EB14846FFF7B9FE3046D5
:10A33000FFF7B6FE3846FFF7B3FE013C05F10C050A
:10A34000EAD12046BDE8F88327FF0108A4F70108F9
:10A350002E07020837FF0108050B020808B540B1B7
:10A360008379622B05D1064B064AC3F800210BF016
:10A370009FF80548FFF794FE64200BF0DFFDF6E739
:10A3800000B00040040302019EF701082DE9F74FD9
:10A390000023484F484E494C8DF806300DF1060118
:10A3A00038460CF0B9FB50B9454C0DF1060120467A
:10A3B0000CF0B2FB002878D103B0BDE8F08F9DF817
:10A3C00006307F2B1FD132787F2A0FD100232360E4
:10A3D000012179230DF107008DF807300BF06CFD9A
:10A3E00014200BF0ABFD3748FFF7B8FF337022683D
:10A3F000B2F5806F3FD300214FF480623248216074
:10A4000011F0FCFDCAE70A2B337001D00D2BEED101
:10A41000236873B3DFF8B48000254FF00C0A0AFB01
:10A4200005F202EB080B58F802904846FDF748FF8A
:10A4300025490246484614F075F9A8B9DBF80430FE
:10A4400021489847054610B92148FFF729FE002109
:10A450001D4821604FF4806211F0D0FD002D9DD089
:10A460002846FFF71DFE99E70135172DD7D1194D65
:10A47000EDE7184DF4E7082B0AD12368002B8DD0A7
:10A480002368114A0021D1542368013B236085E7EA
:10A49000114A0D49D25C02F00302012A226808BF6A
:10A4A00020338B5423680133F0E70DF106000DF0E3
:10A4B00065FB7AE788220020C0110020BC11002033
:10A4C000C41100203BFF0108BB0D0020A4F70108C8
:10A4D0009EF7010888F70108F1220208F8B5114C2F
:10A4E000114D4FF48063A3622E6840F6B7370BF02E
:10A4F000D5FC28B1FFF74AFF2B689B1BBB4204D950
:10A50000084B4FF480629A61F8BD32200BF016FDC3
:10A5100063691A04DB4302F0806203F4806313432F
:10A52000A361E4E700040048A026002037B5184DD9
:10A53000EB7E4BBB0CF02EF90CF02CF9014628B346
:10A54000431E00F10F02134813F8014F045D14F08D
:10A55000440F1BD09A42F7D10C7CBCB90822684644
:10A56000FFF724F808220C4869460DF005FA6B46FF
:10A5700003CB0A4BC5F81E0059600AF0EBF90CF04A
:10A580008BFE204603B030BD0548FBE70548F9E7E0
:10A59000E0340020F12202084CFF0108FE340020C4
:10A5A000A2F5010804F6010837B5184DEB7E4BBB48
:10A5B0000CF0F0F80CF0EEF8014628B3431E00F161
:10A5C0000F02134813F8014F045D14F0440F1BD021
:10A5D0009A42F7D10C7CBCB908226846FEF7E6FF28
:10A5E00008220C4869460DF0C7F96B4603CB0A4BAD
:10A5F000C5F8260059600AF0ADF90CF04DFE204672
:10A6000003B030BD0548FBE70548F9E7E03400201A
:10A61000F122020865FF010806350020A2F50108B5
:10A6200004F6010830B51C4BDB7E85B083BB0CF013
:10A63000B1F80CF0AFF8014660B3431E00F11F0201
:10A64000164813F8014F045D14F0440F22D09A42CB
:10A65000F7D191F82030EBB910226846FEF7A6FF3B
:10A660000F4C1048102269460DF086F904AD6B4678
:10A670001A4603CAAA4220606160134604F1080426
:10A68000F6D10AF067F90CF007FE002005B030BDE6
:10A690000548FBE70548F9E7E0340020F12202080D
:10A6A0000E3500207EFF0108A2F5010804F601081E
:10A6B00030B589B00CF06EF80CF06CF8014640B380
:10A6C000431E00F13F02144813F8014F045D14F0DB
:10A6D000440F1ED09A42F7D191F84030CBB92022D6
:10A6E0006846FEF763FF0D4C0D48202269460DF0C9
:10A6F00043F908AD6B461A4603CAAA42206061605E
:10A70000134604F10804F6D10AF024F9002009B038
:10A7100030BD0448FBE700BFF12202081E350020CF
:10A720007EFF010804F601082DE9FF41D0F814313D
:10A7300004460E4615469BB3C3F1100890454746A4
:10A7400000F2011028BF17461844BAB208F0C2FE42
:10A75000D4F814313B440F2BC4F814312ED9A8453A
:10A760002CD204F1F00304F5807113F8012F187C4A
:10A770008B4282EA00021A70F7D104F1F10810222C
:10A780004146684608F0A6FE2246694668460EF035
:10A7900043FB10226946404608F09CFE3E44ED1BF8
:10A7A00004F5807804F1F107102D0AD8AAB23146D9
:10A7B00004F2011008F08EFEC4F8145104B0BDE894
:10A7C000F08104F1F003711E13F8012F11F8010F4D
:10A7D000434582EA00021A70F6D1102239466846D3
:10A7E00008F078FE2246694668460EF015FB1022F6
:10A7F0006946384608F06EFE1036103DD4E713B5B2
:10A80000044601A8FEF74EFE0146FEF775FE02461D
:10A81000FEF76CFEBDF8043013449AB21BB2B3F5D8
:10A820007A7F0144A2BFA2F57A7301311BB22046A0
:10A830002160A38002B010BD08B5FEF713FEBDE88D
:10A840000840FEF727BE10B50246FEF70BFE044691
:10A850001046FEF715FE201ABDE81040FEF71ABE9E
:10A86000F8B5184F97F80431022B06460D4601D073
:10A870000AF026F9144C94F8942494F81E34CAB9BA
:10A880000BB184F84564304607F07AF8F86AFFF7B0
:10A89000DAFFD4F8B433984208D30C480EF0BAFB70
:10A8A00094F8953443F0200384F89534BDE8F840DB
:10A8B000FEF742BF0BB184F84554284607F060F814
:10A8C000EEE700BF082F0020E8290020802D00209F
:10A8D00038B50146FEF7D2FD01230B720D68044620
:10A8E000FEF7B4FD2044854203D2FEF7AFFD2044BD
:10A8F0000860BDE83840086800F03EBA044A1368B2
:10A900000BB10021197243611060FFF7E1BF00BF76
:10A91000E42600200B4A116810B5034609B90A491C
:10A920001160106809490A4C0344091B8B4206D97F
:10A9300011F070F80C2303604FF0FF3010BD13606E
:10A94000FCE700BF94060020B8380020000001207A
:10A950000004000001207047002070471046704737
:10A960001046704700207047002070470120704754
:10A9700000207047024BD3F884301B68184700BF93
:10A980009C06002013B50C4CD4F884305B689847C3
:10A990004FF47A72B0FBF2F302FB13000090074A07
:10A9A0008021204613F04CFE0146204602B0BDE84F
:10A9B0001040FFF7DFBF00BF9C0600206EF50108C6
:10A9C0000EB470B51D4C94F88030184293B027D067
:10A9D000FFF7D8FF18AB8021179A0193204613F098
:10A9E00093FE7F28014620DC002821DB0024134849
:10A9F000FFF7C0FF12480221FFF7BCFF84B1114BE3
:10AA000002AA03F14006154618685968144603C4A3
:10AA10000833B3422246F7D13F212846FFF7AAFF69
:10AA200013B0BDE8704003B0704780210124DEE719
:10AA300005481D21FFF79EFF0024DBE79C06002050
:10AA4000050B020897FF010884F50108114B1868EF
:10AA500040F6E34283B2934210B517D941F2670240
:10AA6000934215D8A3F6E440FEF780FA0A49FEF7B0
:10AA700085FB0A49FEF7CEFAFEF742FCC4B208494C
:10AA800022460820FFF79CFF204610BD0024F6E771
:10AA9000FE24F4E70C0200200000614400007E4325
:10AAA000D7FF010837B5FFF7C7FE0F4B0F4D1860F2
:10AAB0006C462046FFF7A3FE94E803000C4A05F518
:10AAC0004E7383E80300137843F020031370D5F826
:10AAD000483313B11B6903B198470649082003B0F6
:10AAE000BDE83040FFF76CBF680D0020E82900206A
:10AAF000542900200500020870B50F4C1D4606467B
:10AB0000FFF79AFE62810D4A21811378257323F0A5
:10AB1000110343F011031370094BD3F84833C4E910
:10AB2000000613B11B6903B19847BDE870400549A1
:10AB30000820FFF745BF00BFA80D002054290020C2
:10AB4000E829002027000208094A08B5137843F0D5
:10AB500008031370074BD3F8483313B11B6903B1D3
:10AB60009847BDE8084004490820FFF729BF00BF07
:10AB700054290020E829002049000208094A08B5A4
:10AB8000137843F002031370074BD3F8483313B123
:10AB90001B6903B19847BDE8084004490820FFF746
:10ABA0000FBF00BF54290020E82900206E000208D2
:10ABB00030B50D4685B00446002830D000292ED08F
:10ABC00018490820FFF7FCFE95F90A302A7C039308
:10ABD00095F90930029395F9083001932378009391
:10ABE000114B124953F82230EA680820FFF7E8FEBB
:10ABF000627861680E480CF0BFFE2378032B0ED1FB
:10AC00006378012B0BD163681878012802D00228E1
:10AC100000D020B905B0BDE830400EF0C7B805B08F
:10AC200030BD00BF93000208B8F80108C700020851
:10AC30001401020813B5044650B3037843B318490E
:10AC40000820FFF7BDFE94F91830019394F90A30FB
:10AC50000093237CE26813490820FFF7B1FE627C71
:10AC6000616911480CF088FE10490820FFF7A8FE22
:10AC7000237A012B0ED1617A0D4A0E4B0820002950
:10AC800018BF1A460C49FFF79BFE0C4B01221A70A5
:10AC900002B010BD0A490820FFF792FEF5E700BF99
:10ACA000280102085C01020895010208A1010208BE
:10ACB0002301020824010208B5010208E826002049
:10ACC000CB01020880B190F905304BB98179074A70
:10ACD000074B0120012908BF1A460649FFF770BE3D
:10ACE00005490420FFF76CBE704700BFE20102086F
:10ACF000DE010208E70102080302020838B50A462D
:10AD000005460C4602200549FFF75AFE2246284612
:10AD10000349BDE8384011F045BB00BF20020208DE
:10AD20000060020838B50A4605460C4601460C4844
:10AD300013F0F8FC28B9BDE838400A490120FFF7B4
:10AD40003FBE224608490120FFF73AFE0CF0A4FA64
:10AD5000224629460248BDE838400BF05DB800BFE6
:10AD60000060020833020208530202080149082069
:10AD7000FFF726BE6802020810B50446FEF73CFE47
:10AD8000254B264A1B681C4492F82C30012B6FEA95
:10AD9000040405D122490420FFF712FE002010BD53
:10ADA000012382F82C30022382F82D301D4BD96804
:10ADB00001F44071B1F5807F18BF9869CA205862CC
:10ADC00053205862986920F488509861B1F5807FCB
:10ADD0004FF00100D8654FF000511CBF00201864EF
:10ADE0005964104B10481C67116B41F0010111634D
:10ADF000996941F488519961D0F8801041F400318B
:10AE0000C0F88010FF215962012382F82D30002301
:10AE100082F82C30C2E700BFA4260020A82600201C
:10AE200081020208002800400008005838B5074D8C
:10AE3000074A297852F8203052F821200549044663
:10AE40000820FFF7BDFD2C7038BD00BF0C0D0020A1
:10AE500058F70108A20202082DE9F74F9A4EDFF8D1
:10AE60006C92DFF86CA207464FF00308002F68D100
:10AE700098490820FFF7A4FD0CF066FF924B0722CB
:10AE80009A610524FFF78CF80BF008F8002866D1CA
:10AE9000336843F4807333604FF0B04301209A6D00
:10AEA00042F480629A659B6D03F480630193019B79
:10AEB000B36823F00103B360B36823F00403B36005
:10AEC0000723C6F88800B3614FF48073B3614FF471
:10AED0000063B3610BF002F80AF0E6FF002840D1EE
:10AEE00004200AF0FBFFA10740F1C6807A4C7B4D9D
:10AEF0007F224FF0FF0B0023C4E9022B4FF080426A
:10AF0000C4E90053C4E90433C4E90723A3616362BD
:10AF1000022384F82D30CA236B6253236B620BF03B
:10AF20004DFC00B3C5F824B04FF0000B84F82CB0F2
:10AF30000BF090FC0546002857D04623684A0021B4
:10AF400059E0781C04D167490820FFF739FD98E7DC
:10AF500065493A460820FFF733FD072492E730BFE2
:10AF600092E78420BDE742F20113A8616B604FF6BF
:10AF7000FF7328606B615D4B2B613F232864A864DD
:10AF8000E862A8626864E864EB650BF03DFC0028A9
:10AF9000C8D1574B4FF434021A6058609860D8609B
:10AFA0002368C5F824B0AB421BD14FF0B043D3F8AF
:10AFB000902022F40042C3F890209A6D22F480621F
:10AFC0009A654C4B0422C3F88020BFF34F8FBFF328
:10AFD0006F8F4FF48062C3F88420BFF34F8FBFF3AD
:10AFE0006F8F002384F82D309EE70BF0D3FC20B147
:10AFF0003B4A4C2329460AF06DFA0CF0A5FE324B71
:10B0000007229A6194F82C30012B4FF0020059D09E
:10B01000012384F82C30314B84F82D00CA225A6267
:10B0200053225A629A6922F480629A610422DA6594
:10B03000DA68520605D430480568DA6812F004026E
:10B0400034D0264B2D495F619A6922F0070242F005
:10B0500004029A61D1F8802042F48012C1F8802065
:10B060009A6942F488429A61FF225A62012384F865
:10B070002D30002384F82C30B36823F40073B360C0
:10B08000336843F007033360D9F8103043F004030A
:10B09000C9F8103030BF04205146FFF791FCB8F1D9
:10B0A00001087FF4E3AE03B0BDE8F08F0168491BEF
:10B0B000B1F57A7FC1D9FF210320596284F82D00B0
:10B0C00084F82C208D2339E70004005800ED00E0BF
:10B0D00062030208C3020208A826002000280040DC
:10B0E00023030208D3020208F4020208FF007F00D3
:10B0F00000B0004000E100E0A02600200008005859
:10B100002DE9F04F5C4DDFF874914022312191B070
:10B110004FF44863C5E90012C5E9032300230690F4
:10B12000AB609B4698460024EB680793CA46A64648
:10B13000A446079B9C426DD1BEF1000F7FD05049C1
:10B14000CDF800E0634642460220FFF739FC404656
:10B150000CF096F80024EB68BBF1000F03D19C4281
:10B1600003D2C5E900844FF0010BAA6808F1010879
:10B170002244B8F1320FAA6009F50069D3D10193D6
:10B180006B6800932B683F49DFF8ECB001200FF2A9
:10B19000E009D9E90089FFF713FCD5F808A0BAF156
:10B1A000000F34D0202200210DEB02000AF1FF3AFB
:10B1B00010F024FF08AA514658460DF058FEDDE96C
:10B1C000086727F0004303930296DDE90201424637
:10B1D0004B46FDF7C9FC0028E1D0DDE90A4525F022
:10B1E000004305930494DDE9040142464B46FDF714
:10B1F000BBFC0028D3D0069B069AC3E90067C3E9CD
:10B200000245BDF8343013829DF83630538211B0B8
:10B21000BDE8F08F57460FCF08AE0FC697E80F0076
:10B2200086E80F0008A90A46002312F8010BFF2840
:10B2300008D10133202BF8D10CF1010C11E0A4EB63
:10B240000C0488E79DF83F601F22002311F8010BD2
:10B250000133101A1F2BC2B2F8D1964218BF0EF15B
:10B26000010E01340AF1200A63E700BFAFF300804A
:10B27000000000E0E2361A3FEC0C002000680208F3
:10B2800086030208C1030208024A03490820FFF7A7
:10B2900097BB00BF44F601081704020808B5044A2A
:10B2A00004490820FFF78CFB034B01221A7008BDEC
:10B2B00035F6010817040208E70C0020024A03498A
:10B2C0000820FFF77DBB00BF26F60108170402081F
:10B2D000024A03490820FFF773BB00BF19F60108B3
:10B2E0001704020837B5FEF735F9FEF733F903788E
:10B2F000303B092B02D90B4803B030BD002401A913
:10B3000001940BF03BFA0028F5D0019D0649082076
:10B310002B462A46FFF754FB044B1D6009F01AFB2D
:10B320002046E9E704F6010841040208E034002061
:10B3300037B5FEF70FF9FEF70DF90378303B092B0F
:10B3400002D90B4803B030BD002401A901940BF0D1
:10B3500015FA0028F5D0019D064908202B462A46FB
:10B36000FFF72EFB044B5D6009F0F4FA2046E9E795
:10B3700004F6010869040208E034002037B5FEF73E
:10B38000E9F80378303B092B02D90B4803B030BDF4
:10B39000002401A901940BF0F1F90028F5D0019DDA
:10B3A000064908202B462A46FFF70AFB044B9D60FE
:10B3B00009F0D0FA2046E9E704F6010891040208F2
:10B3C000E034002037B5FEF7C5F80378303B092B91
:10B3D00002D90B4803B030BD002401A901940BF041
:10B3E000CDF90028F5D0019D064908202B462A46B4
:10B3F000FFF7E6FA044BDD6009F0ACFA2046E9E716
:10B4000004F60108C6040208E03400201A4E1B4965
:10B410001B481B4D08B55F2210F0C4FF33681B6941
:10B420000BB1284698475A2285F85F206FF05A02E0
:10B43000002385F86020124A85F86130622412F8F2
:10B44000011B013CA3EB0103DBB2F8D185F86230AC
:10B4500033689B689847336809495B6868222046CF
:10B46000984702200749FFF7ABFA09F07BFA0BF087
:10B4700013FF2046FEF772FF9806002050F60108E1
:10B48000E0340020FE04020837B5FEF763F80378C5
:10B49000303B092B02D90B4803B030BD002401A971
:10B4A00001940BF06BF90028F5D0019D06490820A6
:10B4B0002B462A46FFF784FA044B5D6109F04AFAED
:10B4C0002046E9E704F601083B050208E0340020C5
:10B4D00037B5FEF73FF80378303B092B02D90B480C
:10B4E00003B030BD002401A901940BF047F90028F6
:10B4F000F5D0019D064908202B462A46FFF760FA41
:10B50000044B1D6109F026FA2046E9E704F601081C
:10B5100070050208E034002037B5FEF71BF8037809
:10B52000303B092B02D90D4803B030BD002401A9DE
:10B5300001940BF023F90028F5D0019D012DF2D8DC
:10B540002A4608200649FFF73BFA064B05F001059D
:10B55000DD7609F0FFF92046E6E700BF04F60108B2
:10B56000A6050208E034002037B50BF013F90BF004
:10B5700011F910B90E4803B030BD0378303B092BE8
:10B58000F8D8002401A901940BF0F8F80028F1D0B4
:10B59000019D012DEED82A4608200649FFF710FA32
:10B5A000054B05F001051D7709F0D4F92046E2E7C7
:10B5B00004F60108D1050208E0340020F8B50BF0CC
:10B5C000E9F80BF0E7F80378174E3F2B05460ED14C
:10B5D0001648174DFEF764FD002456F8341028462F
:10B5E0000134FEF75DFD0A2CF7D10020F8BD0024E0
:10B5F00056F834100522284606EBC40713F000F86D
:10B6000068B93C790B4922460820FFF7D9F90A4B63
:10B6100083F85E4009F09EF90BF03EFEE5E7013449
:10B620000A2CE5D10548E1E7B4F50108FD0502085B
:10B63000A7FE010812060208E034002004F6010803
:10B6400037B5FDF787FF0378303B092B02D90C484B
:10B6500003B030BD002401A901940BF08FF800283D
:10B66000F5D0019D07492D1B18BF012508202A464A
:10B67000FFF7A6F9044B9D7609F06CF92046E7E741
:10B6800004F601083F060208E034002037B5FDF754
:10B6900061FF0378303B092B02D90C4803B030BD61
:10B6A000002401A901940BF069F80028F5D0019D50
:10B6B00007492D1B18BF012508202A46FFF780F9EE
:10B6C000044B5D7709F046F92046E7E704F60108E8
:10B6D00068060208E034002037B5FDF73BFF037829
:10B6E000303B092B02D90C4803B030BD002401A91E
:10B6F00001940BF043F80028F5D0019D042DF2D8F9
:10B70000082006492A46FFF75BF9054B5D7609F0EC
:10B7100021F92046E8E700BF04F601089606020872
:10B72000E034002010B5FDF715FF0378303B092BFE
:10B7300001D90E4810BD0A220021013810F0C0F8CE
:10B7400010F1800341F10001B3F5807F71F1000138
:10B750000446EED2082006492246FFF731F9054B90
:10B760001C7609F0F7F80020E4E700BF04F60108B2
:10B77000BB060208E034002010B590B00FA90446C3
:10B78000FDF7AAFF00282DD1042C06D8013C032C7C
:10B790002AD8DFE804F02E3230347F2C31D00F99D4
:10B7A000087C8B784A780D90C87B0C90887B0B9036
:10B7B000487B0A90087B0990C87A0890887A07909D
:10B7C000487A0690087A0590C879049088790390A1
:10B7D0004879029008790190C978009108200A49B7
:10B7E000FFF7EEF810B010BD08490820FFF7E8F8A1
:10B7F000D5E70749F9E70749F7E70749F5E70749B3
:10B80000F3E70749F1E700BFDB070208DF0602089C
:10B8100009070208330702085D07020887070208C4
:10B82000B1070208F0B50446304E31486378314F15
:10B8300093B04370336800259B6A0570984757F8AA
:10B84000043B1BB11B6A0BB1204698470135EBB294
:10B85000052B6DB2F3D12378042B37D00B2B3DD0C1
:10B86000012B2ED1062368468DF8003007F014FA1C
:10B87000214B019A5A6109A820238DF8243007F042
:10B880000BFA1E4B20B91E499DF928201A710A7126
:10B890006278C2B95A711A4B58780DF087FA33683A
:10B8A00016485B6A984763785BB90420FFF764FF2A
:10B8B0007F20FFF761FF0220FFF75EFF0320FFF705
:10B8C0005BFF13B0F0BDFF225A71E8E70D4B012278
:10B8D0005A74227A9A74627ADA74F2E76378002BE7
:10B8E000EFD013B0BDE8F040FEF76CB89C340020F8
:10B8F00004010020EC2600209401002020010020FB
:10B90000CC340020F00000200A7803785340037004
:10B910004A784378534043708A78837853408370E1
:10B92000CA78C3785340C3700A79037953400371CE
:10B930004A794379534043718A79837953408371BB
:10B94000CA79C3795340C3710A7A037A53400372A8
:10B950004A7A437A534043728A7A837A5340837295
:10B96000CA7AC37A5340C3720A7B037B5340037382
:10B970004A7B437B534043738A7B837B534083736F
:10B98000CA7BC37B5340C373704710B50B781478E0
:10B990006340037054784B786340437094788B789D
:10B9A00063408370D478CB786340C37014790B798B
:10B9B0006340037154794B796340437194798B7977
:10B9C00063408371D479CB796340C371147A0B7A65
:10B9D00063400372547A4B7A634043728B7A947A51
:10B9E00063408372D47ACB7A6340C372147B0B7B3F
:10B9F00063400373547B4B7B63404373947B8B7B2B
:10BA000063408373CB7BD27B5340C37310BD000074
:10BA1000184B027841799A5C02700279595C9A5C01
:10BA20000271027A9A5C0272027B9A5C027342781B
:10BA30004170417A9A5C595C4171417B4273595C17
:10BA40004172817A8278595C8170817B9A5C8272C2
:10BA50008279595C8171C17A9A5C595C8273C27B2C
:10BA6000C173C179595CC172C178595C9B5CC17169
:10BA7000C37070476EF401082DE9F04385B00146AC
:10BA80006846FDF7A6FD6E4A6E4B9DF800709DF866
:10BA900005806D489DF80AE09DF80F6012F8089047
:10BAA000DC5D10F80E5010F806C084EA09046C4002
:10BAB0008CEA04040C70C45D8CEA040913F808C015
:10BAC0008CEA090C12F80E9013F80EE08CEA090CBF
:10BAD00081F801C010F808C09DF8098084EA0C04C0
:10BAE00084EA0E0412F806E012F8089084EA0E04C4
:10BAF0008C70D45D9DF804709DF80EE085EA0C050D
:10BB00006C409D5D9DF803606C40CC70DC5D10F86E
:10BB10000E5010F806C084EA09046C408CEA040454
:10BB20000C71C45D8CEA040913F808C08CEA090C96
:10BB300012F80E908CEA090C81F805C010F808C0C4
:10BB400013F80EE09DF80D8084EA0C0484EA0E04DC
:10BB500012F806E012F8089084EA0E048C71D45DA5
:10BB60009DF808709DF802E085EA0C056C409D5D2B
:10BB70009DF807606C40CC71DC5D10F80E5010F839
:10BB800006C084EA09046C408CEA04040C72C45DAB
:10BB90008CEA040913F808C08CEA090C12F80E901C
:10BBA00013F80EE08CEA090C81F809C010F808C0FF
:10BBB0009DF8018084EA0C0484EA0E0412F806E081
:10BBC00084EA0E048C72D45D9DF806E09DF80C703A
:10BBD00085EA0C056C409D5D9DF80B606C40CC7255
:10BBE00010F80E5010F806C012F80890DC5D84EAD8
:10BBF00009046C408CEA04040C73C45D10F808005E
:10BC00008CEA040913F808C08CEA090C12F80E90AB
:10BC10008CEA090C81F80DC013F80EC09B5D4440FE
:10BC200084EA0C0412F806C0D25D4540554084EA0F
:10BC30000C046B408C73CB7305B0BDE8F08300BF80
:10BC40006EF201086EF301086EF40108F0B50646C5
:10BC5000D5B017461C460D46002900F0CF801022B3
:10BC600000210DF2291008F069FA0021F0220EA837
:10BC7000539108F063FA204601A9FDF72DFD044613
:10BC800000285ED101980EA901300BF0B3FE26B159
:10BC9000102231460EA8FEF747FD3A4629460EA867
:10BCA000FEF742FD1022002106A808F047FA06A977
:10BCB0000EAA08460DF0B0F89DF91830002B06AA20
:10BCC0004FF0000140DA137812F8010F01315B00E8
:10BCD00043EAD0130F2902F8013CF4D19DF8273034
:10BCE0005B0083F08703DBB28DF82730539B102B6A
:10BCF00039D14EAA06A812F8015F10F8011B013BCA
:10BD000081EA05011170F6D14AAB102513F8012F15
:10BD1000197C013D82EA01021A70F7D110220DF25E
:10BD200029110AA807F0D6FB0EAA02A90AA80DF04D
:10BD300073F81022294606A808F000FA5A9B029AC6
:10BD40001A60204655B0F0BD137812F8010F01318A
:10BD50005B0043EAD0130F2902F8013CF4D19DF8AF
:10BD600027305B00BFE79DF91820002A06A94FF095
:10BD70000F0030DA0A7811F8015F520042EAD5125A
:10BD8000013801F8012CF5D19DF82720520082F0EE
:10BD90008702D2B28DF827200EAA1A44802182F899
:10BDA00001111A46002101320F2A22D95A1C102AE9
:10BDB000C3F10F0388BF0023134453934EAA06A870
:10BDC000102312F8015F10F8011B013B81EA050105
:10BDD0001170F6D198E70A7811F8015F520042EA33
:10BDE000D512013801F8012CF5D19DF82720520019
:10BDF000CFE70EA8104480F80111D4E70224A0E791
:10BE00002DE9F043BFB014468046F02201A80F464A
:10BE10000021994608F092F969462046FDF75CFC3E
:10BE2000054640B9009801A901300BF0E3FD3C46FE
:10BE30003E1BF6B21CB928463FB0BDE8F08301AA0C
:10BE400009EB060108EB0600103C0CF0E5FFA4B27C
:10BE5000EEE7000030B51A4B1D6885B00C46002394
:10BE600005F1100203EB03110133515C814222D131
:10BE700003EB031380281D444FF0100215D100215D
:10BE8000684610F0BBF874B120466B467F22102143
:10BE9000FFF7B6FF044610226946284607F01AFB52
:10BEA000204605B030BD0224F5E72146284607F0BC
:10BEB00011FB0024F4E70A2BD4D10324F0E700BFE0
:10BEC000983400207F2A7FB506460D46144601D1DE
:10BED000042911D110220021684610F08FF86B461A
:10BEE0002A4610213046FFF78BFF18B969462046D5
:10BEF000FFF7B0FF04B070BD0320FBE700B58BB0C7
:10BF0000012301A88DF8043006F0C6FE38B99DF86B
:10BF10000800003818BF01200BB05DF804FB0020BA
:10BF2000FAE70000074B1B78DB0709D4064BD3F870
:10BF300040232AB993F89604013818BF01207047AE
:10BF40000120704754290020E8290020F8B52A4C28
:10BF500094F80431012B06464CD0022B43D00BB190
:10BF60000320F8BD30B9D4E9190104F16C0383E86A
:10BF70000300F5E701283DD00228F1D11F4D84F8D8
:10BF8000040105F5747CBCE80F0005F57A770FC74E
:10BF90009CE8030094F8DA3087E8030085F8FB6337
:10BFA000C3B1D4F8F030E366C5F8EC3394F87530DB
:10BFB00094F8F42085F8F83394F8803084F87020F1
:10BFC00085F8F93395F81F2485F8E82340F201330A
:10BFD000A5F8FA33002385F81E3408F071FD05F04A
:10BFE0008DFF0020BDE70028BAD184F8040108F0D5
:10BFF00067FDF6E70220B4E7082F0020E8290020BB
:10C000002DE9F04F9F4EBBB0336B0E903BB99E4A6B
:10C01000B6F80C31D2F82024013B534333639A4BDA
:10C0200093F804311BB1042B43D0032305E20AF03B
:10C030002BFE002841F0B381934B96F9395093F8C9
:10C040000C91914BA3F80090336B0B9312A896F8C8
:10C0500008310C93FDF7DAF9D6F81031129ABDF8D1
:10C060004C70D31A0A93B6F81431FF1ABBB23FB220
:10C07000002F05DA0A9A03F57A73013A0A921FB281
:10C0800096F81C41F36A0D93B4B14FF000080124F7
:10C0900096F84030092B01F2C081DFE813F0100060
:10C0A000740001017501D201240291022B037D036A
:10C0B00001040AF03BFEBCE74FF00108E8E700216D
:10C0C000102214A88DF842108DF843100FF096FF3F
:10C0D0000323ADF844306D4BD3F800A00AF5587B2C
:10C0E000012158460AF052FD28B9BAF8603343F0EE
:10C0F0000303AAF86033664B8DF868401B681D93F4
:10C100001023ADF8783011AB1F930B9B22930D9B3E
:10C1100023930C9B8DF8903001238DF89130494684
:10C120000A9B25932846CDE91BBA8DF86950ADF8D6
:10C1300098708DF89C8005F00BFF1AAB289029931E
:10C140000DF142020DF1430314A922A80AF0C2FE28
:10C15000034670B99DF84210013905F0EBFC00F17F
:10C16000E8030DEB0300484B10F8982C83F81F24CC
:10C170009BE20C2840F0E383444B1A68B2F860332A
:10C1800043F0030356E10021482222A88DF8431012
:10C190008DF844100FF032FF3E4BD3F800A004217D
:10C1A00050460AF0F3FC3C4B83461B6848B903F544
:10C1B0005871042250460F9305F079FD0F9B8AF8C1
:10C1C0000CB0052D06DD9AF808201AB9B3F86823DB
:10C1D000AAF80820CDE915A3304B8DF850401B6814
:10C1E00017934823ADF86030002319930B9B1A93E3
:10C1F0000D9B1B930C9B8DF8703001238DF87130D3
:10C2000049460A9B1D9328468DF85150ADF8787029
:10C210008DF87C8005F07AFF14AB209021930DF10E
:10C22000430211AB22A91AA80AF054FE03460028C3
:10C2300040F08583174B1F689CB19DF8431001396E
:10C2400005F078FC00F1E8030DEB03000E4B10F84D
:10C25000602C83F81F240C4B482293F81F14384697
:10C260008FE0022D00F0FE82397AE2B241FA02F24A
:10C27000D007234604F10104F7D5034A403382F87E
:10C280001F34E8E7082F0020E8290020240D0020B3
:10C29000280D00206C0D0020700D00202C0D0020BA
:10C2A0000021602222A88DF842108DF843100FF073
:10C2B000A5FEB64B1193B64BD3F800A0B54B1A7838
:10C2C0000F92114650460AF061FCB34B0F9AD3F817
:10C2D00000B050B94FF0FF33CBE9D833CBF8683317
:10C2E0000BF55871504605F0E2FCAC4B8DF8504010
:10C2F0001B6817936023ADF860300023CDE915ABC0
:10C300008DF8515019933CB9A54A169211AB1422DD
:10C310001593ADF8602019930B9B1A930D9B1B93FB
:10C320000C9B8DF8703001238DF8713049460A9BC3
:10C330001D932846ADF878708DF87C8005F0C4FF19
:10C3400014AB209021930DF142020DF1430322A979
:10C350001AA80AF0BFFD0346002840F0F0829DF8BD
:10C360004210013905F0E6FB00F1E8030DEB030094
:10C370008C4B10F8601C83F81F14864B1A78844B82
:10C38000186805F07BFC90E10021102214A88DF8BC
:10C3900042108DF843100FF031FE0723ADF8443002
:10C3A000814BD3F800A00AF5587B012158460AF0CA
:10C3B000EDFB28B9BAF8603343F00703AAF86033FD
:10C3C0007A4B8DF868401B681D931023ADF87830C8
:10C3D00011AB1F930B9B22930D9B23930C9B8DF80A
:10C3E000903001238DF8913049460A9B25932846C9
:10C3F000CDE91BBA8DF86950ADF898708DF89C8026
:10C4000006F01CFD1AAB289029930DF142020DF1A4
:10C41000430314A922A80AF05DFD034600283FF457
:10C4200099AE0C2840F08B825F4B1A68B2F86033EB
:10C4300043F00703A2F860330C2318463BB0BDE875
:10C44000F08F0021102214A88DF842108DF84310AF
:10C450000FF0D4FD0723ADF84430554BD3F800A0BE
:10C460000AF5587B012158460AF090FB28B9BAF822
:10C47000603343F00703AAF860334E4B8DF86840F1
:10C480001B681D931023ADF8783011AB1F930B9BE5
:10C4900022930D9B23930C9B8DF8903001238DF8F4
:10C4A000913049460A9B25932846CDE91BBA8DF861
:10C4B0006950ADF898708DF89C8006F01DFD1AABA0
:10C4C000289029930DF142020DF1430314A922A8EB
:10C4D0000AF000FD034600283FF43CAE0C2840F073
:10C4E0002E82334BA1E70021102214A88DF84210B0
:10C4F0008DF843100FF082FD0723ADF844302E4B2A
:10C50000D3F800A00AF5587B012158460AF03EFBFB
:10C5100028B9BAF8603343F00703AAF86033274B11
:10C520008DF868401B681D931023ADF8783011AB6F
:10C530001F930B9B22930D9B23930C9B8DF89030A4
:10C5400006238DF8913049460A9B25932846CDE96C
:10C550001BBA8DF86950ADF898708DF89C8006F084
:10C560003BFD1AAB289029930DF142020DF14303D4
:10C5700014A922A80AF0AEFC034600283FF4EAAD55
:10C580000C2840F0DC810C4B4FE700BFFFFF0F0091
:10C59000740D0020780D00209C0D0020300D00202F
:10C5A00000000020E8290020340D0020380D002074
:10C5B0003C0D0020400D0020440D0020480D0020BF
:10C5C0000021102214A88DF842108DF843100FF0AE
:10C5D00015FD0723ADF84430A74BD3F800A00AF5AA
:10C5E000587B012158460AF0D1FA28B9BAF86033CD
:10C5F00043F00703AAF86033A04B8DF868401B682E
:10C600001D9311AB1F930B9B22930D9B23930C9BAC
:10C610008DF8903001238DF8913049460A9B25937F
:10C6200010242846CDE91BBA8DF86950ADF8784042
:10C63000ADF898708DF89C8006F048FD1AAB2890F4
:10C6400029930DF142020DF1430314A922A80AF027
:10C6500041FC0346002848D19DF84210DFF81882BB
:10C66000DFF81CA2013905F065FA4FF00C09C5B2DC
:10C6700005F1E8036B44D8F8000013F8987C9DF8A6
:10C68000423009FB07FC013550F80C00B5FBF3F212
:10C69000514603FB125506236FF04002EDB208F03D
:10C6A0007DFDE0B1774B83F81F74774A92F8400024
:10C6B00092F8754092F9391092F8613092F9612040
:10C6C000092800F25C81DFE810F055015E016A0183
:10C6D000D501D501D501D5017201D101D501013CAA
:10C6E00014F0FF04C4D10D23A7E60C2840F02781E5
:10C6F000614B9AE60021102214A88DF842108DF8A3
:10C7000043100FF07BFC0723ADF844305F4BD3F8A8
:10C7100000A00AF5587B012158460AF037FA28B9DB
:10C72000BAF8603343F00703AAF86033584B8DF82A
:10C7300068401B681D931023ADF8783011AB1F9330
:10C740000B9B22930D9B23930C9B8DF89030012320
:10C750008DF8913049460A9B25932846CDE91BBAAE
:10C760008DF86950ADF898708DF89C8006F06CFCDF
:10C770001AAB289029930DF142020DF1430314A93D
:10C7800022A80AF0A7FB034600283FF4E3AC0C28DC
:10C7900040F0D5803D4B48E60021482222A88DF884
:10C7A00043108DF844100FF029FC3A4BD3F800A049
:10C7B000042150460AF0EAF9374B83461B6848B912
:10C7C00003F55871042250460F9305F070FA0F9B41
:10C7D0008AF80CB0032D06DD9AF808201AB9B3F8D0
:10C7E0006823AAF80820CDE915A32C4B8DF85040FA
:10C7F0001B6817934823ADF86030002319930B9BF7
:10C800001A930D9B1B930C9B8DF8703001238DF8B0
:10C81000713014AB219349460A9B1D9328468DF82D
:10C820005150ADF878708DF87C8006F039FE11AB70
:10C8300020900DF1430222A91AA80AF04BFB0346EF
:10C8400000287CD1134B1F68002C7FF4F6AC4DB14F
:10C85000397AE2B241FA02F2D207234604F1010426
:10C86000F7D50AE507F10C0138460AF0EDFA03287E
:10C870007FF4F1ACFFF7D9BB4C0D0020500D002028
:10C88000400D0300E8290020082F0020540D00204F
:10C89000580D0020A00D0020A40D00205C0D0020EC
:10C8A0000023CDE914338DF842308DF84330032353
:10C8B000ADF84430794BD3F800A00AF5587B01213C
:10C8C00058460AF063F928B9BAF8603343F0030315
:10C8D000AAF86033724B8DF868401B681D930823DB
:10C8E000ADF8783011AB1F930B9B22930D9B2393D4
:10C8F0000C9B8DF8903001238DF8913049460A9BAE
:10C9000025932846CDE91BBA8DF86950ADF898708B
:10C910008DF89C8006F09EFD1AAB289029930DF1AE
:10C9200042020DF1430314A922A80AF0D3FA0346E8
:10C9300000283FF40FAC0C2801D1584B1DE40B2B01
:10C940007FF47BAD0E9A002A3FF477AD554CD4F8B6
:10C95000981469B1D4F8403304F55A7043F02003B9
:10C96000C4F840330CF09AFB04F55A700CF0B2FA9C
:10C97000002362E5C90024B94B4B19448956C9B25A
:10C980001FE04A4BF9E74A4B062505FB0133995650
:10C990000029F4DA003C18BF01246100EFE7454BA1
:10C9A000062404FB0133995621EAE171E7E7424B83
:10C9B00003EBC1039B56002B56DB062908BF00235F
:10C9C000D9B23E4C0094736C96F8482049B205F0F9
:10C9D000BFF904F118030093736C96F8482096F998
:10C9E000681096F8400005F0B3F9A4F56E730C9347
:10C9F000D3F8C413336D0C9A0C980B44C2F8B033BF
:10CA0000D2F8DC23736D1344C0F8B43396F81C31AC
:10CA1000002B34D1B36D0B44C0F8B033F36D134425
:10CA2000C0F8B4330C9B0C9A93F81F54244B128813
:10CA300093F840900B9293F9394093F938609F6FC7
:10CA4000D3F87C8093F81C21B9F1090F00F2988487
:10CA5000DFE819F03C000F015B01E0014302A00296
:10CA6000FD028003DD0339040023A9E7154B03EB26
:10CA7000810398E7CB1A5BB223EAE373A0E70C9B30
:10CA800096F9390093F837420F4B93F80852FCF7A8
:10CA900071FE2C44A042C5D20823CEE4600D0020D4
:10CAA000640D0020E829002080F1010840F1010810
:10CAB000C0F10108EAF101081AF20108A02D0020D6
:10CAC000082F00205AF2010844270020C04BC14A19
:10CAD00013F904B0C04B1268D3F800A0BF490C236F
:10CAE00003FB05A320465B7A03EB430302EBC3037E
:10CAF00093F90230B342B8BF33460A9305F016F9F2
:10CB00004246394606460A9805F0FAF805EB45070D
:10CB1000BF0080465AF8070008F0CCF900204FF417
:10CB20007A63072CCDE90703CDE9050040F0938037
:10CB30000123CDE903030523CDE901034FF47A7303
:10CB400003FB0BF3009346F2A8123346414608F06C
:10CB5000CDFB5AF80700214606F0B4F90B992046A0
:10CB600005F0F6F99E4B9DF82C10C3F820044846BA
:10CB700004F07EFC9B4B9A4C93F8393084F8463491
:10CB80000A9B84F84734D4F82034C4F84C34C4F8F1
:10CB90005C3494F80431C4F85454012684F8456494
:10CBA000002B00F0F183042B7FF43FAA8E4B94F806
:10CBB0001C241E68F368002A40F01D845D1C80F070
:10CBC000EE8394F82821002A0CBF02220322AB42F4
:10CBD000C0F014840AF0AAF8002840F0E08394F82A
:10CBE0000C71D4F80811B4F810C1D4F81031043F16
:10CBF000BAB2002900F0D383B2F5807F00F2CF8370
:10CC0000ADF88EC04FEA134C1B0E8DF891302B0CF3
:10CC10008DF894302B0E8DF89530744BADF88C0058
:10CC20004FF0490E8DF89600009322A80223CDF80C
:10CC300088E08DF890C0ADF892508DF89770FFF7AE
:10CC400005F8002840F0AB830AF070F8002840F0A7
:10CC5000A683F560B5E34FF001090823CDE9030988
:10CC6000CDE901930246CDF800B03346414648462F
:10CC70006DE75F4B5F4A13F904A05F4B1268D3F86E
:10CC800000905E490C2303FB059320465B7A03EB7F
:10CC9000430302EBC30393F90230B342B8BF3346F8
:10CCA0000A9305F043F84246394683460A9805F050
:10CCB00027F805EB4507BF00804659F8070008F044
:10CCC000F9F800224FF47A63CDE9072301260823FF
:10CCD000CDE90522CDE90326CDE9016341465B4656
:10CCE0003046CDF800A008F001FB59F807002146B6
:10CCF00006F0E8F89DF82C10304604F0B9FB0B99CB
:10CD0000204605F003FA0C9BFDE13D4B13F904A00E
:10CD10000C23002A4AD03B4A12686B43D11852F8C0
:10CD20000390394A4B7A1268384903EB430302EB0C
:10CD3000C303204693F90230B342B8BF33460A9387
:10CD400004F0F4FF4246394683460A9804F0D8FFBF
:10CD50008046484608F0AEF800264FF47A63072C68
:10CD6000CDE90763CDE9056622D10123CDE903634F
:10CD70000523CDE901634FF47A7303FB0AF30093B3
:10CD800046F2A8125B464146304608F0AFFA3746F5
:10CD90002146484606F096F89DF82C10384604F0D7
:10CDA00067FB0B99204605F08FFAACE7184AB4E709
:10CDB00001270823CDE90173CDE90367CDF800A071
:10CDC0005B4632464146384608F090FAE0E700BF3D
:10CDD00058F00108280D0020240D002038F001082B
:10CDE000E8290020082F0020502900201C2B0020BB
:10CDF000A0F001082C0D0020700D002060F001084B
:10CE000058F001089C0D0020300D0020B0F0010802
:10CE100000000020BD4BBE4A13F904A0BD4B1268B0
:10CE2000D3F80090BC490C2303FB059320465B7AA2
:10CE300003EB430302EBC30393F90230B342B8BFE1
:10CE400033460A9304F072FF4246394683460A98F5
:10CE500004F056FF05EB45084FEA88080D9059F895
:10CE6000080008F027F800264FF47A63072CCDE974
:10CE70000763CDE905660D9921D10123CDE903634F
:10CE80000523CDE901634FF47A7303FB0AF30093A2
:10CE900046F2A8125B46304608F028FA374659F8A1
:10CEA0000800214606F00EF80B99204605F0C6FF53
:10CEB0000C9B9DF82C10C3F82004384658E6012737
:10CEC0000823CDE90173CDE90367CDF800A05B46E7
:10CED0003246384608F00AFAE1E7904B904A13F9D7
:10CEE00004A0904B1268D3F800908F490C2303FBE9
:10CEF000059320465B7A03EB430302EBC30393F9EC
:10CF00000230B342B8BF33460A9304F00FFF4246E3
:10CF1000394683460A9804F0F3FE05EB45084FEACC
:10CF200088080D9059F8080007F0C4FF00264FF458
:10CF30007A63072CCDE90763CDE905660D991BD10E
:10CF40000123CDE903630523CDE901634FF47A732F
:10CF500003FB0AF3009346F2A8125B46304608F042
:10CF6000C5F9374659F80800214605F0ABFF0B9983
:10CF7000204605F0C1FF9BE701270823CDE9017397
:10CF8000CDE90367CDF800A05B463246384608F08D
:10CF9000ADF9E7E7654B664A13F904A0654B1268E3
:10CFA000D3F8009064490C2303FB059320465B7A79
:10CFB00003EB430302EBC30393F90230B342B8BF60
:10CFC00033460A9304F0B2FE4246394683460A9835
:10CFD00004F096FE05EB45084FEA88080D9059F8D5
:10CFE000080007F067FF00264FF47A63072CCDE9AD
:10CFF0000763CDE905660D991BD10123CDE90363D4
:10D000000523CDE901634FF47A7303FB0AF3009320
:10D0100046F2A8125B46304608F068F9374659F8E0
:10D020000800214605F04EFF0B99204605F0D4FF7D
:10D030003EE701270823CDE90173CDE90367CDF869
:10D0400000A05B463246384608F050F9E7E73B4B14
:10D050003B4A13F904B03B4B1268D3F800903A49AD
:10D060000C2303FB059320465B7A03EB430302EB9F
:10D07000C30393F90230B342B8BF33460A9304F0B6
:10D0800055FE05EB45034FEA830A0C9059F80A60F8
:10D090002E4886428CBF0E200A20FBF767FF014610
:10D0A0000D903846FBF766FE08B90D990F463946D4
:10D0B00042460A9804F024FE0746304607F0FAFE7E
:10D0C00000224FF47A63CDE9072301260823CDE936
:10D0D0000522CDE90326CDE9016339460C9BCDF845
:10D0E00000B0304608F002F959F80A00214605F070
:10D0F000E9FE9DF82C10304604F0BAF90B99204651
:10D1000005F0E4FF124BC3F8200433E558F00108A2
:10D11000380D0020340D002038F0010858F00108C7
:10D12000400D00203C0D002038F0010858F00108A7
:10D13000480D0020440D002038F00108E8F00108F7
:10D14000500D00204C0D0020D0F001081F21F636B4
:10D15000E8290020B24BB34A13F904A0B24B12687D
:10D16000D3F80090B1490C2303FB059320465B7A6A
:10D1700003EB430302EBC30393F90230B342B8BF9E
:10D1800033460A9304F0D2FD4246394683460A9854
:10D1900004F0B6FD05EB45084FEA88080D9059F8F4
:10D1A000080007F087FE00264FF47A63072CCDE9CC
:10D1B0000763CDE905660D991BD10123CDE9036312
:10D1C0000523CDE901634FF47A7303FB0AF300935F
:10D1D00046F2A8125B46304608F088F8374659F800
:10D1E0000800214605F06EFE0B99204605F02CFF45
:10D1F0005EE601270823CDE90173CDE90367CDF889
:10D2000000A05B463246384608F070F8E7E7884BE6
:10D21000884A13F90490884B1268D3F800800C23D5
:10D2200003FB0583042C5B7A03EB430302EBC3038C
:10D2300093F9027038D1022EB8BF02267F490A96B0
:10D24000204604F073FD7E49834600220A9804F0CC
:10D2500057FD05EB4507BF00824658F8070007F069
:10D2600029FE00224FF47A63CDE907230126082323
:10D27000CDE90522CDE90326CDE9016351465B46A0
:10D280003046CDF8009008F031F858F807002146F4
:10D2900005F018FE9DF82C10304604F0E9F80B99C3
:10D2A000204606F0FDF82EE5042108F5587009F037
:10D2B0006DFC312803D9BE42B8BF3E46BEE7052EFD
:10D2C000B8BF0526BAE75F4B5F4A13F904A05F4B6E
:10D2D0001268D3F800905E490C2303FB05932046A7
:10D2E0005B7A03EB430302EBC30393F90230B342CF
:10D2F000B8BF33460A9304F019FD424639468346C7
:10D300000A9804F0FDFC05EB45084FEA88080D90EB
:10D3100059F8080007F0CEFD00264FF47A63072C79
:10D32000CDE90763CDE905660D991BD10123CDE950
:10D3300003630523CDE901634FF47A7303FB0AF31A
:10D34000009346F2A8125B46304607F0CFFF3746FF
:10D3500059F80800214605F0B5FD0B99204606F066
:10D3600079F8A5E501270823CDE90173CDE9036725
:10D37000CDF800A05B463246384607F0B7FFE7E736
:10D3800000230A93FFF7F6BB324B1B689A880132E1
:10D3900092B29A80A4F81E2109F076FC10B11123F4
:10D3A000FFF74BB804F590730093D4F80811334697
:10D3B0001322FEF74BFC0028F1D109F065FC002890
:10D3C000EDD1254A94F80C11D2F84033118043F086
:10D3D0000203C2F8403392F81C340133DBB282F806
:10D3E0001C3482F84934901C0023C2F89C3407F0A6
:10D3F000CDFBFFF7BDBA1D46FFF7E3BB0023019548
:10D400000093D4F8103194F83011D4F82C0104F0C2
:10D41000DDFA00283FF4DEABC1E70923FFF70DB8C2
:10D4200058F00108580D0020540D002038F0010874
:10D4300030F101085C0D0020A40D0020F0F001087F
:10D440000000F04158F00108640D0020600D00203C
:10D4500038F0010850290020E829002070B5184C48
:10D460001848194D0BF0D6FDD4F84033D4F89C047D
:10D47000D5F8846023F02003C4F8403338B1FDF7B9
:10D48000E2F9864203D2002385F83A3070BD0120CC
:10D49000FEF7B6FD0028F9D00B28F7D095F8393003
:10D4A00084F84634092094F81C3484F8493484F80C
:10D4B000450404F065FABDE870400BF055BC00BFB0
:10D4C000E8290020502D0020082F00202DE9F04FE2
:10D4D00095B000230746894607920493FEF722FD84
:10D4E000002840F02282FEF709FD0128834607D07C
:10D4F0009D4BD9799879FCF705FA6FF0020510E297
:10D500009A4BDFF86CA29B4C83F80890DFF8688296
:10D510009AF904300593A36A0D931093D8F8003458
:10D520001193238F94F8CD208DF828205BBAADF8A5
:10D53000483094F8743094F8CC208DF84B300021AA
:10D5400094F840308DF82C208DF83C1098F81C246D
:10D5500094F806118DF84C300DAB7E788DF83020A4
:10D560008DF83D108DF84A2000930BAA0CAB0AA948
:10D570000FA806F0AFFB9DF92800FCF7FBF87F4BE6
:10D58000D3F808320F2B04D8984202D31E44B0427D
:10D590005ED200260396B1466FF0060597E80300B9
:10D5A000774A724B82E803009AF804209A72FEF7D9
:10D5B000B9FC0146002840F0AD81142207467148AD
:10D5C00006F0BCFD012288F8452494F81C21022AAB
:10D5D00007D194F80421022A03D194F80A21002AE1
:10D5E00043D0B9F1010F16BF02220422CB46022319
:10D5F0008DF834300DA994F8743094F840008DF80B
:10D60000363062F3471704F083FF94F8061109904F
:10D6100094F81C2194F8093140B241BB059B834228
:10D62000B8BF0346184694F874308DF828000522D8
:10D6300094F840008DF82A300AA905F073FD0346DE
:10D64000002800F069819DF8283084F8393012E014
:10D650003B780493B9F100097B687E78039318BF87
:10D660004FF001094FF0FF3598E70422BFE7012A88
:10D6700001D1002BD7D0D8F89C04D4F8849030B1D5
:10D68000FDF7E1F881453CBF002384F83A30228F52
:10D69000238F94F81C110692A26A0B925BBA0029A0
:10D6A00000F0368194F8071101B92163DFF8C480D6
:10D6B000ADF8483098F8041198F860302E4C8DF889
:10D6C0004A30013998F874308DF84B30D1F10009A7
:10D6D00098F84030109249EB010998F83A10D4F8C4
:10D6E000002405918DF84C304FF001010BAB98F8F8
:10D6F00006A18DF83C101192009308F1380208F150
:10D70000600308F139010FA88DF83DA006F0E2FA98
:10D71000059B4FEA091949EA43194FF0000323809A
:10D7200084F81E3400230C93039B002B08BF0026B3
:10D7300049EA80193246194604F59C7005F0CAFE84
:10D74000FAB2A770C7F3421749EACA19F3B2042F15
:10D75000CA4684F8373217D0072F00F0C380022F53
:10D7600016D00224A6E000BF200100200401002002
:10D77000CC340020082F0020E82900204427002076
:10D78000140100202C2E00204FF0010184F81E14FB
:10D790006E4E84F8303106F59B73C4F82C316C4B17
:10D7A00084F80D2104211B6884F80411DB68049AB5
:10D7B00084F828210133A4F81631C4F85034654B9D
:10D7C000D8F8D420D3F80832C4F81021FF21002261
:10D7D000C4F8086184F80C1184F81491A4F8482462
:10D7E0000C93BBB198F93900FBF7C4FF94F83732BA
:10D7F000002B67D00C9B0F2B54D806F58B720CA90D
:10D800000F2005F0ADFE002853D10C9B63F3030AF3
:10D8100084F814A10798FEF7F3FB0446002849D1C9
:10D820000B9BC8F828304B4B88F83A001868002842
:10D8300067D1494B93F8952483F844B442F0010230
:10D8400083F89524444BD3F89834A346434A136095
:10D85000BBF1110F73D801A353F82BF031D9000895
:10D860002BD900083FD900083FD900083FD900084C
:10D870003FD900083FD90008FBD400083FD9000871
:10D880003FD900083FD900081FD900083FD9000838
:10D890003FD900082BD900082BD900082BD9000844
:10D8A00045D9000806F29E420CA905F059FE002851
:10D8B000B0D01324069BA8F83830274B002283F8F9
:10D8C0001E24BFE706F29E4632460CA905F048FE2C
:10D8D0000028EED10C9B84F82801C4F82C6184F850
:10D8E000303197E7039B002B94D0002E92D019463D
:10D8F0003246E01C05F0EEFD94F837320133238008
:10D9000088E7037B06680BB90BF0F0F930468EE729
:10D910000724D2E7002399E74FF0030B96E76FF057
:10D920000505284615B0BDE8F08F6FF00105F8E752
:10D930000B4B00221A70EB1D18BF1546F1E74FF094
:10D94000FF35EEE76FF00405EBE700BFEA290020A2
:10D950005029002044270020E82900202407002027
:10D96000C8340020000000002DE9F04FB3B00023C0
:10D97000CDE9143312937E4B1D7815B908F094FA53
:10D98000054608F091FA58B14FF090434FF4806289
:10D990001B6913F4806F774B1ABF00259A629A6156
:10D9A000754C764A236811685B1A42F20F718B42FC
:10D9B00003D9236813600AF043FC714B714E1B7846
:10D9C000002B59D1704923680A689B1A41F28732AB
:10D9D00093420AD923680B603DB1664D4FF48067CE
:10D9E000AF62642008F0AAFAAF61684A2368116840
:10D9F0005B1AB3F57A7F3FD323681360B37E002BA5
:10DA00002ED0634C08F050FAD4E90C23CDE90E2354
:10DA1000D4E90A23CDE90C23D4E90E23CDE90A2366
:10DA2000054651A3D3E90023D4E91401FAF70CFE0B
:10DA3000CDE90801D4E90423CDE90623D4E9022382
:10DA4000CDE90423D4E90023CDE9022394F8403042
:10DA50000093504B50491B682A468020FCF7B0FFCA
:10DA60004E4A136843B14E4B196829B112684D49AB
:10DA70001B680220FCF7A4FFFCF788FCF37E002B58
:10DA800001F00681EFF3108272B6474F00213B6828
:10DA9000396082F31088002B00F0AC81DAB213F009
:10DAA000200F424E109200F09B80414C94F80431BC
:10DAB000022B01D007F004F8D6F8B0133D480BF064
:10DAC000EDFA3C480BF006FAD6F8B4133A480BF0DE
:10DAD000E5FA39480BF0FEF996F81E34002B3DD0DC
:10DAE000152326A994F840008DF8983004F010FD15
:10DAF000D6F8B4131C90014430480BF0CFFA2F48ED
:10DB00000BF0E8F92E4B96F81F541B68E36218A837
:10DB1000FBF77CFCD4F81021189BB4F814119B1A65
:10DB2000BDF86420521A100494F81C2194F84000A7
:10DB3000D6F8201448BF03F1FF33003A18BF012282
:10DB400009284DD8DFE810F03E009900A300AD0091
:10DB5000B700C100CB00D500DF00E90086F84534EE
:10DB6000D0E700BFAFF300802EFF21FDF675E03F48
:10DB7000BA0D002000040048A0260020200D00203F
:10DB8000B80D0020E03400201C0D0020180D0020EE
:10DB9000D82100200C02002042080208140D0020A9
:10DBA000100D00209908020854290020E8290020BF
